{
  "contractName": "Token",
  "abi": [
    {
      "constant": true,
      "inputs": [
        {
          "name": "_address",
          "type": "address"
        },
        {
          "name": "_hash",
          "type": "string"
        }
      ],
      "name": "getAccountTokens",
      "outputs": [
        {
          "name": "",
          "type": "uint256"
        }
      ],
      "payable": false,
      "stateMutability": "view",
      "type": "function",
      "signature": "0x4f17a1c1"
    },
    {
      "constant": false,
      "inputs": [
        {
          "name": "_address",
          "type": "address"
        },
        {
          "name": "_hash",
          "type": "string"
        },
        {
          "name": "_ammount",
          "type": "uint256"
        },
        {
          "name": "_price",
          "type": "uint256"
        }
      ],
      "name": "putOnSale",
      "outputs": [],
      "payable": false,
      "stateMutability": "nonpayable",
      "type": "function",
      "signature": "0xc8cb8d7e"
    },
    {
      "constant": true,
      "inputs": [
        {
          "name": "_address",
          "type": "address"
        },
        {
          "name": "_hash",
          "type": "string"
        }
      ],
      "name": "getOnSalePrice",
      "outputs": [
        {
          "name": "",
          "type": "uint256"
        }
      ],
      "payable": false,
      "stateMutability": "view",
      "type": "function",
      "signature": "0x9f96dad2"
    },
    {
      "constant": false,
      "inputs": [
        {
          "name": "_address",
          "type": "address"
        },
        {
          "name": "_hash",
          "type": "string"
        },
        {
          "name": "amount",
          "type": "uint256"
        }
      ],
      "name": "buyOnBid",
      "outputs": [],
      "payable": false,
      "stateMutability": "nonpayable",
      "type": "function",
      "signature": "0xaa8c33a8"
    },
    {
      "constant": true,
      "inputs": [
        {
          "name": "_address",
          "type": "address"
        },
        {
          "name": "_hash",
          "type": "string"
        }
      ],
      "name": "getSellStatus",
      "outputs": [
        {
          "name": "",
          "type": "uint256"
        }
      ],
      "payable": false,
      "stateMutability": "view",
      "type": "function",
      "signature": "0x4ffdc727"
    },
    {
      "constant": true,
      "inputs": [
        {
          "name": "_hash",
          "type": "string"
        }
      ],
      "name": "getDeedHash",
      "outputs": [
        {
          "name": "",
          "type": "string"
        }
      ],
      "payable": false,
      "stateMutability": "view",
      "type": "function",
      "signature": "0xb9fabdf4"
    },
    {
      "constant": true,
      "inputs": [],
      "name": "getAddress",
      "outputs": [
        {
          "name": "",
          "type": "address"
        }
      ],
      "payable": false,
      "stateMutability": "view",
      "type": "function",
      "signature": "0x38cc4831"
    },
    {
      "constant": true,
      "inputs": [],
      "name": "getTotalSupply",
      "outputs": [
        {
          "name": "",
          "type": "uint256"
        }
      ],
      "payable": false,
      "stateMutability": "view",
      "type": "function",
      "signature": "0xc4e41b22"
    },
    {
      "constant": true,
      "inputs": [
        {
          "name": "_hash",
          "type": "string"
        }
      ],
      "name": "getNumberOfTokens",
      "outputs": [
        {
          "name": "",
          "type": "uint256"
        }
      ],
      "payable": false,
      "stateMutability": "view",
      "type": "function",
      "signature": "0x8be35cfc"
    },
    {
      "constant": true,
      "inputs": [
        {
          "name": "_hash",
          "type": "string"
        }
      ],
      "name": "getTokenPrice",
      "outputs": [
        {
          "name": "",
          "type": "uint256"
        }
      ],
      "payable": false,
      "stateMutability": "view",
      "type": "function",
      "signature": "0x5350758f"
    },
    {
      "constant": true,
      "inputs": [
        {
          "name": "_hash",
          "type": "string"
        }
      ],
      "name": "getTokenName",
      "outputs": [
        {
          "name": "",
          "type": "string"
        }
      ],
      "payable": false,
      "stateMutability": "view",
      "type": "function",
      "signature": "0x8cd93e8c"
    },
    {
      "constant": true,
      "inputs": [
        {
          "name": "_hash",
          "type": "string"
        }
      ],
      "name": "getTokenSymbol",
      "outputs": [
        {
          "name": "",
          "type": "string"
        }
      ],
      "payable": false,
      "stateMutability": "view",
      "type": "function",
      "signature": "0x696758f3"
    },
    {
      "constant": true,
      "inputs": [
        {
          "name": "_hash",
          "type": "string"
        }
      ],
      "name": "getTokenOwner",
      "outputs": [
        {
          "name": "",
          "type": "address"
        }
      ],
      "payable": false,
      "stateMutability": "view",
      "type": "function",
      "signature": "0x2709e3ce"
    },
    {
      "constant": true,
      "inputs": [
        {
          "name": "_hash",
          "type": "string"
        }
      ],
      "name": "getTokenStatus",
      "outputs": [
        {
          "name": "",
          "type": "bool"
        }
      ],
      "payable": false,
      "stateMutability": "view",
      "type": "function",
      "signature": "0xd15e8927"
    },
    {
      "constant": true,
      "inputs": [
        {
          "name": "_hash",
          "type": "string"
        }
      ],
      "name": "getTokenDeed",
      "outputs": [
        {
          "name": "",
          "type": "uint256"
        }
      ],
      "payable": false,
      "stateMutability": "view",
      "type": "function",
      "signature": "0x482b97c3"
    },
    {
      "constant": true,
      "inputs": [
        {
          "name": "_address",
          "type": "address"
        }
      ],
      "name": "getBalance",
      "outputs": [
        {
          "name": "",
          "type": "uint256"
        }
      ],
      "payable": false,
      "stateMutability": "view",
      "type": "function",
      "signature": "0xf8b2cb4f"
    },
    {
      "constant": false,
      "inputs": [
        {
          "name": "_tokenPrice",
          "type": "uint256"
        },
        {
          "name": "_totalToken",
          "type": "uint256"
        },
        {
          "name": "_name",
          "type": "string"
        },
        {
          "name": "_symbol",
          "type": "string"
        },
        {
          "name": "deed",
          "type": "uint256"
        },
        {
          "name": "_hash",
          "type": "string"
        },
        {
          "name": "_deedHash",
          "type": "string"
        }
      ],
      "name": "mint",
      "outputs": [],
      "payable": false,
      "stateMutability": "nonpayable",
      "type": "function",
      "signature": "0xad3cd8c9"
    },
    {
      "constant": false,
      "inputs": [
        {
          "name": "_hash",
          "type": "string"
        },
        {
          "name": "_to",
          "type": "address"
        }
      ],
      "name": "changeOwner",
      "outputs": [],
      "payable": false,
      "stateMutability": "nonpayable",
      "type": "function",
      "signature": "0xd8f9d144"
    },
    {
      "constant": false,
      "inputs": [
        {
          "name": "_hash",
          "type": "string"
        },
        {
          "name": "_number",
          "type": "uint256"
        }
      ],
      "name": "buyToken",
      "outputs": [],
      "payable": false,
      "stateMutability": "nonpayable",
      "type": "function",
      "signature": "0x09be7707"
    },
    {
      "constant": false,
      "inputs": [
        {
          "name": "_hash",
          "type": "string"
        },
        {
          "name": "ammount",
          "type": "uint256"
        }
      ],
      "name": "saleTokens",
      "outputs": [],
      "payable": false,
      "stateMutability": "nonpayable",
      "type": "function",
      "signature": "0x386e40ed"
    },
    {
      "constant": true,
      "inputs": [
        {
          "name": "_address",
          "type": "address"
        },
        {
          "name": "_id",
          "type": "uint256"
        }
      ],
      "name": "showAccountTokens",
      "outputs": [
        {
          "name": "",
          "type": "uint256"
        }
      ],
      "payable": false,
      "stateMutability": "view",
      "type": "function",
      "signature": "0xb392007a"
    },
    {
      "constant": true,
      "inputs": [
        {
          "name": "_id",
          "type": "uint256"
        }
      ],
      "name": "getTokenHashID",
      "outputs": [
        {
          "name": "",
          "type": "string"
        }
      ],
      "payable": false,
      "stateMutability": "view",
      "type": "function",
      "signature": "0x556633ff"
    }
  ],
  "bytecode": "0x608060405234801561001057600080fd5b506134e8806100206000396000f3fe608060405260043610610128576000357c0100000000000000000000000000000000000000000000000000000000900463ffffffff16806309be77071461012d5780632709e3ce146101ff578063386e40ed1461030757806338cc4831146103d9578063482b97c3146104305780634f17a1c11461050c5780634ffdc727146106085780635350758f14610704578063556633ff146107e0578063696758f3146108945780638be35cfc146109d55780638cd93e8c14610ab15780639f96dad214610bf2578063aa8c33a814610cee578063ad3cd8c914610de0578063b392007a1461108b578063b9fabdf4146110fa578063c4e41b221461123b578063c8cb8d7e14611266578063d15e892714611362578063d8f9d14414611442578063f8b2cb4f1461152a575b600080fd5b34801561013957600080fd5b506101fd6004803603604081101561015057600080fd5b810190808035906020019064010000000081111561016d57600080fd5b82018360208201111561017f57600080fd5b803590602001918460018302840111640100000000831117156101a157600080fd5b91908080601f016020809104026020016040519081016040528093929190818152602001838380828437600081840152601f19601f8201169050808301925050505050505091929192908035906020019092919050505061158f565b005b34801561020b57600080fd5b506102c56004803603602081101561022257600080fd5b810190808035906020019064010000000081111561023f57600080fd5b82018360208201111561025157600080fd5b8035906020019184600183028401116401000000008311171561027357600080fd5b91908080601f016020809104026020016040519081016040528093929190818152602001838380828437600081840152601f19601f820116905080830192505050505050509192919290505050611870565b604051808273ffffffffffffffffffffffffffffffffffffffff1673ffffffffffffffffffffffffffffffffffffffff16815260200191505060405180910390f35b34801561031357600080fd5b506103d76004803603604081101561032a57600080fd5b810190808035906020019064010000000081111561034757600080fd5b82018360208201111561035957600080fd5b8035906020019184600183028401116401000000008311171561037b57600080fd5b91908080601f016020809104026020016040519081016040528093929190818152602001838380828437600081840152601f19601f8201169050808301925050505050505091929192908035906020019092919050505061190a565b005b3480156103e557600080fd5b506103ee611b78565b604051808273ffffffffffffffffffffffffffffffffffffffff1673ffffffffffffffffffffffffffffffffffffffff16815260200191505060405180910390f35b34801561043c57600080fd5b506104f66004803603602081101561045357600080fd5b810190808035906020019064010000000081111561047057600080fd5b82018360208201111561048257600080fd5b803590602001918460018302840111640100000000831117156104a457600080fd5b91908080601f016020809104026020016040519081016040528093929190818152602001838380828437600081840152601f19601f820116905080830192505050505050509192919290505050611b80565b6040518082815260200191505060405180910390f35b34801561051857600080fd5b506105f26004803603604081101561052f57600080fd5b81019080803573ffffffffffffffffffffffffffffffffffffffff1690602001909291908035906020019064010000000081111561056c57600080fd5b82018360208201111561057e57600080fd5b803590602001918460018302840111640100000000831117156105a057600080fd5b91908080601f016020809104026020016040519081016040528093929190818152602001838380828437600081840152601f19601f820116905080830192505050505050509192919290505050611bf5565b6040518082815260200191505060405180910390f35b34801561061457600080fd5b506106ee6004803603604081101561062b57600080fd5b81019080803573ffffffffffffffffffffffffffffffffffffffff1690602001909291908035906020019064010000000081111561066857600080fd5b82018360208201111561067a57600080fd5b8035906020019184600183028401116401000000008311171561069c57600080fd5b91908080601f016020809104026020016040519081016040528093929190818152602001838380828437600081840152601f19601f820116905080830192505050505050509192919290505050611ca8565b6040518082815260200191505060405180910390f35b34801561071057600080fd5b506107ca6004803603602081101561072757600080fd5b810190808035906020019064010000000081111561074457600080fd5b82018360208201111561075657600080fd5b8035906020019184600183028401116401000000008311171561077857600080fd5b91908080601f016020809104026020016040519081016040528093929190818152602001838380828437600081840152601f19601f820116905080830192505050505050509192919290505050611d5b565b6040518082815260200191505060405180910390f35b3480156107ec57600080fd5b506108196004803603602081101561080357600080fd5b8101908080359060200190929190505050611dd0565b6040518080602001828103825283818151815260200191508051906020019080838360005b8381101561085957808201518184015260208101905061083e565b50505050905090810190601f1680156108865780820380516001836020036101000a031916815260200191505b509250505060405180910390f35b3480156108a057600080fd5b5061095a600480360360208110156108b757600080fd5b81019080803590602001906401000000008111156108d457600080fd5b8201836020820111156108e657600080fd5b8035906020019184600183028401116401000000008311171561090857600080fd5b91908080601f016020809104026020016040519081016040528093929190818152602001838380828437600081840152601f19601f820116905080830192505050505050509192919290505050611e85565b6040518080602001828103825283818151815260200191508051906020019080838360005b8381101561099a57808201518184015260208101905061097f565b50505050905090810190601f1680156109c75780820380516001836020036101000a031916815260200191505b509250505060405180910390f35b3480156109e157600080fd5b50610a9b600480360360208110156109f857600080fd5b8101908080359060200190640100000000811115610a1557600080fd5b820183602082011115610a2757600080fd5b80359060200191846001830284011164010000000083111715610a4957600080fd5b91908080601f016020809104026020016040519081016040528093929190818152602001838380828437600081840152601f19601f820116905080830192505050505050509192919290505050611f92565b6040518082815260200191505060405180910390f35b348015610abd57600080fd5b50610b7760048036036020811015610ad457600080fd5b8101908080359060200190640100000000811115610af157600080fd5b820183602082011115610b0357600080fd5b80359060200191846001830284011164010000000083111715610b2557600080fd5b91908080601f016020809104026020016040519081016040528093929190818152602001838380828437600081840152601f19601f820116905080830192505050505050509192919290505050612007565b6040518080602001828103825283818151815260200191508051906020019080838360005b83811015610bb7578082015181840152602081019050610b9c565b50505050905090810190601f168015610be45780820380516001836020036101000a031916815260200191505b509250505060405180910390f35b348015610bfe57600080fd5b50610cd860048036036040811015610c1557600080fd5b81019080803573ffffffffffffffffffffffffffffffffffffffff16906020019092919080359060200190640100000000811115610c5257600080fd5b820183602082011115610c6457600080fd5b80359060200191846001830284011164010000000083111715610c8657600080fd5b91908080601f016020809104026020016040519081016040528093929190818152602001838380828437600081840152601f19601f820116905080830192505050505050509192919290505050612114565b6040518082815260200191505060405180910390f35b348015610cfa57600080fd5b50610dde60048036036060811015610d1157600080fd5b81019080803573ffffffffffffffffffffffffffffffffffffffff16906020019092919080359060200190640100000000811115610d4e57600080fd5b820183602082011115610d6057600080fd5b80359060200191846001830284011164010000000083111715610d8257600080fd5b91908080601f016020809104026020016040519081016040528093929190818152602001838380828437600081840152601f19601f820116905080830192505050505050509192919290803590602001909291905050506121c7565b005b348015610dec57600080fd5b50611089600480360360e0811015610e0357600080fd5b81019080803590602001909291908035906020019092919080359060200190640100000000811115610e3457600080fd5b820183602082011115610e4657600080fd5b80359060200191846001830284011164010000000083111715610e6857600080fd5b91908080601f016020809104026020016040519081016040528093929190818152602001838380828437600081840152601f19601f82011690508083019250505050505050919291929080359060200190640100000000811115610ecb57600080fd5b820183602082011115610edd57600080fd5b80359060200191846001830284011164010000000083111715610eff57600080fd5b91908080601f016020809104026020016040519081016040528093929190818152602001838380828437600081840152601f19601f8201169050808301925050505050505091929192908035906020019092919080359060200190640100000000811115610f6c57600080fd5b820183602082011115610f7e57600080fd5b80359060200191846001830284011164010000000083111715610fa057600080fd5b91908080601f016020809104026020016040519081016040528093929190818152602001838380828437600081840152601f19601f8201169050808301925050505050505091929192908035906020019064010000000081111561100357600080fd5b82018360208201111561101557600080fd5b8035906020019184600183028401116401000000008311171561103757600080fd5b91908080601f016020809104026020016040519081016040528093929190818152602001838380828437600081840152601f19601f8201169050808301925050505050505091929192905050506123ef565b005b34801561109757600080fd5b506110e4600480360360408110156110ae57600080fd5b81019080803573ffffffffffffffffffffffffffffffffffffffff16906020019092919080359060200190929190505050612cab565b6040518082815260200191505060405180910390f35b34801561110657600080fd5b506111c06004803603602081101561111d57600080fd5b810190808035906020019064010000000081111561113a57600080fd5b82018360208201111561114c57600080fd5b8035906020019184600183028401116401000000008311171561116e57600080fd5b91908080601f016020809104026020016040519081016040528093929190818152602001838380828437600081840152601f19601f820116905080830192505050505050509192919290505050612e15565b6040518080602001828103825283818151815260200191508051906020019080838360005b838110156112005780820151818401526020810190506111e5565b50505050905090810190601f16801561122d5780820380516001836020036101000a031916815260200191505b509250505060405180910390f35b34801561124757600080fd5b50611250612f22565b6040518082815260200191505060405180910390f35b34801561127257600080fd5b506113606004803603608081101561128957600080fd5b81019080803573ffffffffffffffffffffffffffffffffffffffff169060200190929190803590602001906401000000008111156112c657600080fd5b8201836020820111156112d857600080fd5b803590602001918460018302840111640100000000831117156112fa57600080fd5b91908080601f016020809104026020016040519081016040528093929190818152602001838380828437600081840152601f19601f8201169050808301925050505050505091929192908035906020019092919080359060200190929190505050612f2b565b005b34801561136e57600080fd5b506114286004803603602081101561138557600080fd5b81019080803590602001906401000000008111156113a257600080fd5b8201836020820111156113b457600080fd5b803590602001918460018302840111640100000000831117156113d657600080fd5b91908080601f016020809104026020016040519081016040528093929190818152602001838380828437600081840152601f19601f820116905080830192505050505050509192919290505050613201565b604051808215151515815260200191505060405180910390f35b34801561144e57600080fd5b506115286004803603604081101561146557600080fd5b810190808035906020019064010000000081111561148257600080fd5b82018360208201111561149457600080fd5b803590602001918460018302840111640100000000831117156114b657600080fd5b91908080601f016020809104026020016040519081016040528093929190818152602001838380828437600081840152601f19601f820116905080830192505050505050509192919290803573ffffffffffffffffffffffffffffffffffffffff169060200190929190505050613283565b005b34801561153657600080fd5b506115796004803603602081101561154d57600080fd5b81019080803573ffffffffffffffffffffffffffffffffffffffff1690602001909291905050506133f6565b6040518082815260200191505060405180910390f35b6001826040518082805190602001908083835b6020831015156115c757805182526020820191506020810190506020830392506115a2565b6001836020036101000a038019825116818451168082178552505050505050905001915050908152602001604051809103902060009054906101000a900460ff16151561161357600080fd5b6007826040518082805190602001908083835b60208310151561164b5780518252602082019150602081019050602083039250611626565b6001836020036101000a038019825116818451168082178552505050505050905001915050908152602001604051809103902054811115151561168d57600080fd5b60003390506000601160008373ffffffffffffffffffffffffffffffffffffffff1673ffffffffffffffffffffffffffffffffffffffff168152602001908152602001600020846040518082805190602001908083835b60208310151561170957805182526020820191506020810190506020830392506116e4565b6001836020036101000a0380198251168184511680821785525050505050509050019150509081526020016040518091039020549050828101905080601160008473ffffffffffffffffffffffffffffffffffffffff1673ffffffffffffffffffffffffffffffffffffffff168152602001908152602001600020856040518082805190602001908083835b6020831015156117ba5780518252602082019150602081019050602083039250611795565b6001836020036101000a038019825116818451168082178552505050505050905001915050908152602001604051809103902081905550826007856040518082805190602001908083835b60208310151561182a5780518252602082019150602081019050602083039250611805565b6001836020036101000a03801982511681845116808217855250505050505090500191505090815260200160405180910390206000828254039250508190555050505050565b600080600a836040518082805190602001908083835b6020831015156118ab5780518252602082019150602081019050602083039250611886565b6001836020036101000a038019825116818451168082178552505050505050905001915050908152602001604051809103902060009054906101000a900473ffffffffffffffffffffffffffffffffffffffff16905080915050919050565b6001826040518082805190602001908083835b602083101515611942578051825260208201915060208101905060208303925061191d565b6001836020036101000a038019825116818451168082178552505050505050905001915050908152602001604051809103902060009054906101000a900460ff16151561198e57600080fd5b80601160003373ffffffffffffffffffffffffffffffffffffffff1673ffffffffffffffffffffffffffffffffffffffff168152602001908152602001600020836040518082805190602001908083835b602083101515611a0457805182526020820191506020810190506020830392506119df565b6001836020036101000a03801982511681845116808217855250505050505090500191505090815260200160405180910390205410151515611a4557600080fd5b80601160003373ffffffffffffffffffffffffffffffffffffffff1673ffffffffffffffffffffffffffffffffffffffff168152602001908152602001600020836040518082805190602001908083835b602083101515611abb5780518252602082019150602081019050602083039250611a96565b6001836020036101000a038019825116818451168082178552505050505050905001915050908152602001604051809103902060008282540392505081905550806007836040518082805190602001908083835b602083101515611b345780518252602082019150602081019050602083039250611b0f565b6001836020036101000a0380198251168184511680821785525050505050509050019150509081526020016040518091039020600082825401925050819055505050565b600033905090565b60006009826040518082805190602001908083835b602083101515611bba5780518252602082019150602081019050602083039250611b95565b6001836020036101000a0380198251168184511680821785525050505050509050019150509081526020016040518091039020549050919050565b6000601160008473ffffffffffffffffffffffffffffffffffffffff1673ffffffffffffffffffffffffffffffffffffffff168152602001908152602001600020826040518082805190602001908083835b602083101515611c6c5780518252602082019150602081019050602083039250611c47565b6001836020036101000a038019825116818451168082178552505050505050905001915050908152602001604051809103902054905092915050565b6000601060008473ffffffffffffffffffffffffffffffffffffffff1673ffffffffffffffffffffffffffffffffffffffff168152602001908152602001600020826040518082805190602001908083835b602083101515611d1f5780518252602082019150602081019050602083039250611cfa565b6001836020036101000a038019825116818451168082178552505050505050905001915050908152602001604051809103902054905092915050565b60006006826040518082805190602001908083835b602083101515611d955780518252602082019150602081019050602083039250611d70565b6001836020036101000a0380198251168184511680821785525050505050509050019150509081526020016040518091039020549050919050565b6060600b60008381526020019081526020016000208054600181600116156101000203166002900480601f016020809104026020016040519081016040528092919081815260200182805460018160011615610100020316600290048015611e795780601f10611e4e57610100808354040283529160200191611e79565b820191906000526020600020905b815481529060010190602001808311611e5c57829003601f168201915b50505050509050919050565b60606004826040518082805190602001908083835b602083101515611ebf5780518252602082019150602081019050602083039250611e9a565b6001836020036101000a03801982511681845116808217855250505050505090500191505090815260200160405180910390208054600181600116156101000203166002900480601f016020809104026020016040519081016040528092919081815260200182805460018160011615610100020316600290048015611f865780601f10611f5b57610100808354040283529160200191611f86565b820191906000526020600020905b815481529060010190602001808311611f6957829003601f168201915b50505050509050919050565b60006007826040518082805190602001908083835b602083101515611fcc5780518252602082019150602081019050602083039250611fa7565b6001836020036101000a0380198251168184511680821785525050505050509050019150509081526020016040518091039020549050919050565b60606005826040518082805190602001908083835b602083101515612041578051825260208201915060208101905060208303925061201c565b6001836020036101000a03801982511681845116808217855250505050505090500191505090815260200160405180910390208054600181600116156101000203166002900480601f0160208091040260200160405190810160405280929190818152602001828054600181600116156101000203166002900480156121085780601f106120dd57610100808354040283529160200191612108565b820191906000526020600020905b8154815290600101906020018083116120eb57829003601f168201915b50505050509050919050565b6000600f60008473ffffffffffffffffffffffffffffffffffffffff1673ffffffffffffffffffffffffffffffffffffffff168152602001908152602001600020826040518082805190602001908083835b60208310151561218b5780518252602082019150602081019050602083039250612166565b6001836020036101000a038019825116818451168082178552505050505050905001915050908152602001604051809103902054905092915050565b80601060008573ffffffffffffffffffffffffffffffffffffffff1673ffffffffffffffffffffffffffffffffffffffff168152602001908152602001600020836040518082805190602001908083835b60208310151561223d5780518252602082019150602081019050602083039250612218565b6001836020036101000a0380198251168184511680821785525050505050509050019150509081526020016040518091039020541015151561227e57600080fd5b80601060008573ffffffffffffffffffffffffffffffffffffffff1673ffffffffffffffffffffffffffffffffffffffff168152602001908152602001600020836040518082805190602001908083835b6020831015156122f457805182526020820191506020810190506020830392506122cf565b6001836020036101000a03801982511681845116808217855250505050505090500191505090815260200160405180910390206000828254039250508190555080601160003373ffffffffffffffffffffffffffffffffffffffff1673ffffffffffffffffffffffffffffffffffffffff168152602001908152602001600020836040518082805190602001908083835b6020831015156123aa5780518252602082019150602081019050602083039250612385565b6001836020036101000a038019825116818451168082178552505050505050905001915050908152602001604051809103902060008282540192505081905550505050565b6001826040518082805190602001908083835b6020831015156124275780518252602082019150602081019050602083039250612402565b6001836020036101000a038019825116818451168082178552505050505050905001915050908152602001604051809103902060009054906101000a900460ff1615151561247457600080fd5b6002856040518082805190602001908083835b6020831015156124ac5780518252602082019150602081019050602083039250612487565b6001836020036101000a038019825116818451168082178552505050505050905001915050908152602001604051809103902060009054906101000a900460ff161515156124f957600080fd5b6003846040518082805190602001908083835b602083101515612531578051825260208201915060208101905060208303925061250c565b6001836020036101000a038019825116818451168082178552505050505050905001915050908152602001604051809103902060009054906101000a900460ff1615151561257e57600080fd5b600d600084815260200190815260200160002060009054906101000a900460ff161515156125ab57600080fd5b600e816040518082805190602001908083835b6020831015156125e357805182526020820191506020810190506020830392506125be565b6001836020036101000a038019825116818451168082178552505050505050905001915050908152602001604051809103902060009054906101000a900460ff1615151561263057600080fd5b6001600080828254019250508190555081600b6000805481526020019081526020016000209080519060200190612668929190613417565b50846005836040518082805190602001908083835b6020831015156126a2578051825260208201915060208101905060208303925061267d565b6001836020036101000a038019825116818451168082178552505050505050905001915050908152602001604051809103902090805190602001906126e8929190613417565b50836004836040518082805190602001908083835b60208310151561272257805182526020820191506020810190506020830392506126fd565b6001836020036101000a03801982511681845116808217855250505050505090500191505090815260200160405180910390209080519060200190612768929190613417565b50866006836040518082805190602001908083835b6020831015156127a2578051825260208201915060208101905060208303925061277d565b6001836020036101000a038019825116818451168082178552505050505050905001915050908152602001604051809103902081905550856007836040518082805190602001908083835b60208310151561281257805182526020820191506020810190506020830392506127ed565b6001836020036101000a03801982511681845116808217855250505050505090500191505090815260200160405180910390208190555080600c836040518082805190602001908083835b602083101515612882578051825260208201915060208101905060208303925061285d565b6001836020036101000a038019825116818451168082178552505050505050905001915050908152602001604051809103902090805190602001906128c8929190613417565b5060016008836040518082805190602001908083835b60208310151561290357805182526020820191506020810190506020830392506128de565b6001836020036101000a038019825116818451168082178552505050505050905001915050908152602001604051809103902060006101000a81548160ff02191690831515021790555033600a836040518082805190602001908083835b6020831015156129865780518252602082019150602081019050602083039250612961565b6001836020036101000a038019825116818451168082178552505050505050905001915050908152602001604051809103902060006101000a81548173ffffffffffffffffffffffffffffffffffffffff021916908373ffffffffffffffffffffffffffffffffffffffff160217905550826009836040518082805190602001908083835b602083101515612a305780518252602082019150602081019050602083039250612a0b565b6001836020036101000a0380198251168184511680821785525050505050509050019150509081526020016040518091039020819055506001600d600085815260200190815260200160002060006101000a81548160ff0219169083151502179055506001600e826040518082805190602001908083835b602083101515612acd5780518252602082019150602081019050602083039250612aa8565b6001836020036101000a038019825116818451168082178552505050505050905001915050908152602001604051809103902060006101000a81548160ff021916908315150217905550600180836040518082805190602001908083835b602083101515612b505780518252602082019150602081019050602083039250612b2b565b6001836020036101000a038019825116818451168082178552505050505050905001915050908152602001604051809103902060006101000a81548160ff02191690831515021790555060016002866040518082805190602001908083835b602083101515612bd45780518252602082019150602081019050602083039250612baf565b6001836020036101000a038019825116818451168082178552505050505050905001915050908152602001604051809103902060006101000a81548160ff02191690831515021790555060016003856040518082805190602001908083835b602083101515612c585780518252602082019150602081019050602083039250612c33565b6001836020036101000a038019825116818451168082178552505050505050905001915050908152602001604051809103902060006101000a81548160ff02191690831515021790555050505050505050565b60006060600b60008481526020019081526020016000208054600181600116156101000203166002900480601f016020809104026020016040519081016040528092919081815260200182805460018160011615610100020316600290048015612d565780601f10612d2b57610100808354040283529160200191612d56565b820191906000526020600020905b815481529060010190602001808311612d3957829003601f168201915b505050505090506000601160008673ffffffffffffffffffffffffffffffffffffffff1673ffffffffffffffffffffffffffffffffffffffff168152602001908152602001600020826040518082805190602001908083835b602083101515612dd45780518252602082019150602081019050602083039250612daf565b6001836020036101000a0380198251168184511680821785525050505050509050019150509081526020016040518091039020549050809250505092915050565b6060600c826040518082805190602001908083835b602083101515612e4f5780518252602082019150602081019050602083039250612e2a565b6001836020036101000a03801982511681845116808217855250505050505090500191505090815260200160405180910390208054600181600116156101000203166002900480601f016020809104026020016040519081016040528092919081815260200182805460018160011615610100020316600290048015612f165780601f10612eeb57610100808354040283529160200191612f16565b820191906000526020600020905b815481529060010190602001808311612ef957829003601f168201915b50505050509050919050565b60008054905090565b81601160008673ffffffffffffffffffffffffffffffffffffffff1673ffffffffffffffffffffffffffffffffffffffff168152602001908152602001600020846040518082805190602001908083835b602083101515612fa15780518252602082019150602081019050602083039250612f7c565b6001836020036101000a03801982511681845116808217855250505050505090500191505090815260200160405180910390205410151515612fe257600080fd5b81601060008673ffffffffffffffffffffffffffffffffffffffff1673ffffffffffffffffffffffffffffffffffffffff168152602001908152602001600020846040518082805190602001908083835b6020831015156130585780518252602082019150602081019050602083039250613033565b6001836020036101000a03801982511681845116808217855250505050505090500191505090815260200160405180910390206000828254019250508190555080600f60008673ffffffffffffffffffffffffffffffffffffffff1673ffffffffffffffffffffffffffffffffffffffff168152602001908152602001600020846040518082805190602001908083835b60208310151561310e57805182526020820191506020810190506020830392506130e9565b6001836020036101000a03801982511681845116808217855250505050505090500191505090815260200160405180910390208190555081601160008673ffffffffffffffffffffffffffffffffffffffff1673ffffffffffffffffffffffffffffffffffffffff168152602001908152602001600020846040518082805190602001908083835b6020831015156131bb5780518252602082019150602081019050602083039250613196565b6001836020036101000a03801982511681845116808217855250505050505090500191505090815260200160405180910390206000828254039250508190555050505050565b60006008826040518082805190602001908083835b60208310151561323b5780518252602082019150602081019050602083039250613216565b6001836020036101000a038019825116818451168082178552505050505050905001915050908152602001604051809103902060009054906101000a900460ff169050919050565b600a826040518082805190602001908083835b6020831015156132bb5780518252602082019150602081019050602083039250613296565b6001836020036101000a038019825116818451168082178552505050505050905001915050908152602001604051809103902060009054906101000a900473ffffffffffffffffffffffffffffffffffffffff1673ffffffffffffffffffffffffffffffffffffffff163373ffffffffffffffffffffffffffffffffffffffff1614151561334857600080fd5b80600a836040518082805190602001908083835b602083101515613381578051825260208201915060208101905060208303925061335c565b6001836020036101000a038019825116818451168082178552505050505050905001915050908152602001604051809103902060006101000a81548173ffffffffffffffffffffffffffffffffffffffff021916908373ffffffffffffffffffffffffffffffffffffffff1602179055505050565b60008173ffffffffffffffffffffffffffffffffffffffff16319050919050565b828054600181600116156101000203166002900490600052602060002090601f016020900481019282601f1061345857805160ff1916838001178555613486565b82800160010185558215613486579182015b8281111561348557825182559160200191906001019061346a565b5b5090506134939190613497565b5090565b6134b991905b808211156134b557600081600090555060010161349d565b5090565b9056fea165627a7a723058200956946dc8dabaa89d1197b949f35a530393d41ad867361f406cf5dbac980ff70029",
  "source": "pragma solidity >=0.4.21;\n\ncontract Token {\n    uint256 totalSupply;\n    mapping(string => bool) hashExist;\n    mapping(string => bool) tokenExist;\n    mapping(string => bool) symbolExist;\n    mapping(string => string) tokenSymbol;\n    mapping(string => string) tokenName;\n    mapping(string => uint256) tokenPrice;\n    mapping(string => uint256) tokenNumbers;\n    mapping(string => bool) tokenStatus;\n    mapping(string => uint256) tokenDeed;\n    mapping(string => address) owners;\n    mapping(uint256 => string) tokenID;\n    mapping (string => string) deedHash;\n    mapping (uint256=> bool) deedExist;\n    mapping(string=>bool) deedHashExist;\n    mapping (address => mapping (string =>uint256)) onSalePrice;\n    mapping (address => mapping(string =>uint256)) onSale;\n    mapping(address => mapping(string => uint256)) accountInfo;\n    function getAccountTokens(address _address , string memory _hash) public view returns (uint256){\n        return accountInfo[_address][_hash];\n    }\n    function putOnSale(address _address , string memory _hash, uint256 _ammount ,uint256 _price)   public{\n          require(accountInfo[_address][_hash]>=_ammount);\n           onSale[_address][_hash]+=_ammount;\n           onSalePrice[_address][_hash]=_price;\n           accountInfo[_address][_hash]-=_ammount;\n    }\n    function getOnSalePrice (address _address , string memory _hash)public view returns(uint256){\n        return onSalePrice[_address][_hash];\n    }\n    function buyOnBid (address _address , string memory _hash , uint256 amount) public {\n            require(onSale[_address][_hash]>=amount);\n            onSale[_address][_hash]-=amount;\n            accountInfo[msg.sender][_hash]+=amount;\n    }\n    function getSellStatus(address _address , string memory _hash) public view returns (uint256){\n        return onSale[_address][_hash];\n    } \n    function getDeedHash(string memory _hash) public view returns(string memory){\n        return deedHash[_hash];\n    }\n    \n    function getAddress() public view returns (address) {\n        return msg.sender;\n    }\n\n    function getTotalSupply() public view returns (uint256) {\n        return totalSupply;\n    }\n\n    function getNumberOfTokens(string memory _hash)\n        public\n        view\n        returns (uint256)\n    {\n        return tokenNumbers[_hash];\n    }\n\n    function getTokenPrice(string memory _hash) public view returns (uint256) {\n        return tokenPrice[_hash];\n    }\n\n    function getTokenName(string memory _hash)\n        public\n        view\n        returns (string memory)\n    {\n        return tokenName[_hash];\n    }\n\n    function getTokenSymbol(string memory _hash)\n        public\n        view\n        returns (string memory)\n    {\n        return tokenSymbol[_hash];\n    }\n\n    function getTokenOwner(string memory _hash) public view returns (address) {\n        address ans= owners[_hash];\n        return ans;\n    }\n\n    function getTokenStatus(string memory _hash) public view returns (bool) {\n        return tokenStatus[_hash];\n    }\n\n    function getTokenDeed(string memory _hash) public view returns (uint256) {\n        return tokenDeed[_hash];\n    }\n\n    function getBalance(address _address) public view returns (uint256) {\n        return _address.balance;\n    }\n\n    function mint(\n        uint256 _tokenPrice,\n        uint256 _totalToken,\n        string memory _name,\n        string memory _symbol,\n        uint256 deed,\n        string memory _hash,\n        string memory _deedHash\n    ) public {\n        require(!hashExist[_hash]);\n        require(!tokenExist[_name]);\n        require(!symbolExist[_symbol]);\n        require(!deedExist[deed]);\n        require(!deedHashExist[_deedHash]);\n        totalSupply += 1;\n        tokenID[totalSupply] = _hash;\n        tokenName[_hash] = _name;\n        tokenSymbol[_hash] = _symbol;\n        tokenPrice[_hash] = _tokenPrice;\n        tokenNumbers[_hash] = _totalToken;\n        deedHash[_hash]=_deedHash;\n        tokenStatus[_hash]=true;\n        owners[_hash] = msg.sender;\n        tokenDeed[_hash] = deed;\n        deedExist[deed]=true;\n        deedHashExist[_deedHash]=true;\n        hashExist[_hash] = true;\n        tokenExist[_name] = true;\n        symbolExist[_symbol] = true;\n    }\n\n    function changeOwner(string memory _hash, address _to ) public {\n        require(msg.sender == owners[_hash]);\n        owners[_hash] = _to;\n    }\n\n    function buyToken(string memory _hash, uint256 _number) public {\n        require(hashExist[_hash]);\n        require(_number <= tokenNumbers[_hash]);\n        address _address = msg.sender;\n        uint256 tokenNow = accountInfo[_address][_hash];\n        tokenNow += _number;\n        accountInfo[_address][_hash] = tokenNow;\n        tokenNumbers[_hash] -= _number;\n    }\n\n    function saleTokens(string memory _hash, uint256 ammount) public {\n        require(hashExist[_hash]);\n        require(accountInfo[msg.sender][_hash] >= ammount);\n        accountInfo[msg.sender][_hash] -= ammount;\n        tokenNumbers[_hash] += ammount;\n    }\n\n    function showAccountTokens(address _address, uint256 _id)\n        public\n        view\n        returns (uint256)\n    {\n        string memory _hash = tokenID[_id];\n        uint256 buyerTokenNumber = accountInfo[_address][_hash];\n        return buyerTokenNumber;\n    }\n    function getTokenHashID(uint256 _id)public view returns(string memory){\n        return tokenID[_id];\n    }\n}\n",
  "sourcePath": "/home/ishmam-abid/Crypto-token-master/front_end/src/contracts/Token.sol",
  "compiler": {
    "name": "solc",
    "version": "0.5.0+commit.1d4f565a.Emscripten.clang"
  },
  "schemaVersion": "3.0.2",
  "updatedAt": "2021-05-08T05:06:18.701Z",
  "devdoc": {
    "methods": {}
  },
  "userdoc": {
    "methods": {}
  }
}