{
  "contractName": "Token",
  "abi": [
    {
      "constant": true,
      "inputs": [
        {
          "name": "_address",
          "type": "address"
        },
        {
          "name": "_hash",
          "type": "string"
        }
      ],
      "name": "getAccountTokens",
      "outputs": [
        {
          "name": "",
          "type": "uint256"
        }
      ],
      "payable": false,
      "stateMutability": "view",
      "type": "function",
      "signature": "0x4f17a1c1"
    },
    {
      "constant": false,
      "inputs": [
        {
          "name": "_address",
          "type": "address"
        },
        {
          "name": "_hash",
          "type": "string"
        },
        {
          "name": "_ammount",
          "type": "uint256"
        }
      ],
      "name": "putOnSale",
      "outputs": [],
      "payable": false,
      "stateMutability": "nonpayable",
      "type": "function",
      "signature": "0xca73445f"
    },
    {
      "constant": false,
      "inputs": [
        {
          "name": "_address",
          "type": "address"
        },
        {
          "name": "_hash",
          "type": "string"
        },
        {
          "name": "amount",
          "type": "uint256"
        }
      ],
      "name": "buyOnBid",
      "outputs": [],
      "payable": false,
      "stateMutability": "nonpayable",
      "type": "function",
      "signature": "0xaa8c33a8"
    },
    {
      "constant": true,
      "inputs": [
        {
          "name": "_address",
          "type": "address"
        },
        {
          "name": "_hash",
          "type": "string"
        }
      ],
      "name": "getSellStatus",
      "outputs": [
        {
          "name": "",
          "type": "uint256"
        }
      ],
      "payable": false,
      "stateMutability": "view",
      "type": "function",
      "signature": "0x4ffdc727"
    },
    {
      "constant": true,
      "inputs": [
        {
          "name": "_hash",
          "type": "string"
        }
      ],
      "name": "getDeedHash",
      "outputs": [
        {
          "name": "",
          "type": "string"
        }
      ],
      "payable": false,
      "stateMutability": "view",
      "type": "function",
      "signature": "0xb9fabdf4"
    },
    {
      "constant": true,
      "inputs": [],
      "name": "getAddress",
      "outputs": [
        {
          "name": "",
          "type": "address"
        }
      ],
      "payable": false,
      "stateMutability": "view",
      "type": "function",
      "signature": "0x38cc4831"
    },
    {
      "constant": true,
      "inputs": [],
      "name": "getTotalSupply",
      "outputs": [
        {
          "name": "",
          "type": "uint256"
        }
      ],
      "payable": false,
      "stateMutability": "view",
      "type": "function",
      "signature": "0xc4e41b22"
    },
    {
      "constant": true,
      "inputs": [
        {
          "name": "_hash",
          "type": "string"
        }
      ],
      "name": "getNumberOfTokens",
      "outputs": [
        {
          "name": "",
          "type": "uint256"
        }
      ],
      "payable": false,
      "stateMutability": "view",
      "type": "function",
      "signature": "0x8be35cfc"
    },
    {
      "constant": true,
      "inputs": [
        {
          "name": "_hash",
          "type": "string"
        }
      ],
      "name": "getTokenPrice",
      "outputs": [
        {
          "name": "",
          "type": "uint256"
        }
      ],
      "payable": false,
      "stateMutability": "view",
      "type": "function",
      "signature": "0x5350758f"
    },
    {
      "constant": true,
      "inputs": [
        {
          "name": "_hash",
          "type": "string"
        }
      ],
      "name": "getTokenName",
      "outputs": [
        {
          "name": "",
          "type": "string"
        }
      ],
      "payable": false,
      "stateMutability": "view",
      "type": "function",
      "signature": "0x8cd93e8c"
    },
    {
      "constant": true,
      "inputs": [
        {
          "name": "_hash",
          "type": "string"
        }
      ],
      "name": "getTokenSymbol",
      "outputs": [
        {
          "name": "",
          "type": "string"
        }
      ],
      "payable": false,
      "stateMutability": "view",
      "type": "function",
      "signature": "0x696758f3"
    },
    {
      "constant": true,
      "inputs": [
        {
          "name": "_hash",
          "type": "string"
        }
      ],
      "name": "getTokenOwner",
      "outputs": [
        {
          "name": "",
          "type": "address"
        }
      ],
      "payable": false,
      "stateMutability": "view",
      "type": "function",
      "signature": "0x2709e3ce"
    },
    {
      "constant": true,
      "inputs": [
        {
          "name": "_hash",
          "type": "string"
        }
      ],
      "name": "getTokenStatus",
      "outputs": [
        {
          "name": "",
          "type": "bool"
        }
      ],
      "payable": false,
      "stateMutability": "view",
      "type": "function",
      "signature": "0xd15e8927"
    },
    {
      "constant": true,
      "inputs": [
        {
          "name": "_hash",
          "type": "string"
        }
      ],
      "name": "getTokenDeed",
      "outputs": [
        {
          "name": "",
          "type": "uint256"
        }
      ],
      "payable": false,
      "stateMutability": "view",
      "type": "function",
      "signature": "0x482b97c3"
    },
    {
      "constant": true,
      "inputs": [
        {
          "name": "_address",
          "type": "address"
        }
      ],
      "name": "getBalance",
      "outputs": [
        {
          "name": "",
          "type": "uint256"
        }
      ],
      "payable": false,
      "stateMutability": "view",
      "type": "function",
      "signature": "0xf8b2cb4f"
    },
    {
      "constant": false,
      "inputs": [
        {
          "name": "_tokenPrice",
          "type": "uint256"
        },
        {
          "name": "_totalToken",
          "type": "uint256"
        },
        {
          "name": "_name",
          "type": "string"
        },
        {
          "name": "_symbol",
          "type": "string"
        },
        {
          "name": "deed",
          "type": "uint256"
        },
        {
          "name": "_hash",
          "type": "string"
        },
        {
          "name": "_deedHash",
          "type": "string"
        }
      ],
      "name": "mint",
      "outputs": [],
      "payable": false,
      "stateMutability": "nonpayable",
      "type": "function",
      "signature": "0xad3cd8c9"
    },
    {
      "constant": false,
      "inputs": [
        {
          "name": "_hash",
          "type": "string"
        },
        {
          "name": "_to",
          "type": "address"
        }
      ],
      "name": "changeOwner",
      "outputs": [],
      "payable": false,
      "stateMutability": "nonpayable",
      "type": "function",
      "signature": "0xd8f9d144"
    },
    {
      "constant": false,
      "inputs": [
        {
          "name": "_hash",
          "type": "string"
        },
        {
          "name": "_number",
          "type": "uint256"
        }
      ],
      "name": "buyToken",
      "outputs": [],
      "payable": false,
      "stateMutability": "nonpayable",
      "type": "function",
      "signature": "0x09be7707"
    },
    {
      "constant": false,
      "inputs": [
        {
          "name": "_hash",
          "type": "string"
        },
        {
          "name": "ammount",
          "type": "uint256"
        }
      ],
      "name": "saleTokens",
      "outputs": [],
      "payable": false,
      "stateMutability": "nonpayable",
      "type": "function",
      "signature": "0x386e40ed"
    },
    {
      "constant": true,
      "inputs": [
        {
          "name": "_address",
          "type": "address"
        },
        {
          "name": "_id",
          "type": "uint256"
        }
      ],
      "name": "showAccountTokens",
      "outputs": [
        {
          "name": "",
          "type": "uint256"
        }
      ],
      "payable": false,
      "stateMutability": "view",
      "type": "function",
      "signature": "0xb392007a"
    },
    {
      "constant": true,
      "inputs": [
        {
          "name": "_id",
          "type": "uint256"
        }
      ],
      "name": "getTokenHashID",
      "outputs": [
        {
          "name": "",
          "type": "string"
        }
      ],
      "payable": false,
      "stateMutability": "view",
      "type": "function",
      "signature": "0x556633ff"
    }
  ],
  "bytecode": "0x608060405234801561001057600080fd5b50613276806100206000396000f3fe60806040526004361061011d576000357c0100000000000000000000000000000000000000000000000000000000900463ffffffff16806309be7707146101225780632709e3ce146101f4578063386e40ed146102fc57806338cc4831146103ce578063482b97c3146104255780634f17a1c1146105015780634ffdc727146105fd5780635350758f146106f9578063556633ff146107d5578063696758f3146108895780638be35cfc146109ca5780638cd93e8c14610aa6578063aa8c33a814610be7578063ad3cd8c914610cd9578063b392007a14610f84578063b9fabdf414610ff3578063c4e41b2214611134578063ca73445f1461115f578063d15e892714611251578063d8f9d14414611331578063f8b2cb4f14611419575b600080fd5b34801561012e57600080fd5b506101f26004803603604081101561014557600080fd5b810190808035906020019064010000000081111561016257600080fd5b82018360208201111561017457600080fd5b8035906020019184600183028401116401000000008311171561019657600080fd5b91908080601f016020809104026020016040519081016040528093929190818152602001838380828437600081840152601f19601f8201169050808301925050505050505091929192908035906020019092919050505061147e565b005b34801561020057600080fd5b506102ba6004803603602081101561021757600080fd5b810190808035906020019064010000000081111561023457600080fd5b82018360208201111561024657600080fd5b8035906020019184600183028401116401000000008311171561026857600080fd5b91908080601f016020809104026020016040519081016040528093929190818152602001838380828437600081840152601f19601f82011690508083019250505050505050919291929050505061175f565b604051808273ffffffffffffffffffffffffffffffffffffffff1673ffffffffffffffffffffffffffffffffffffffff16815260200191505060405180910390f35b34801561030857600080fd5b506103cc6004803603604081101561031f57600080fd5b810190808035906020019064010000000081111561033c57600080fd5b82018360208201111561034e57600080fd5b8035906020019184600183028401116401000000008311171561037057600080fd5b91908080601f016020809104026020016040519081016040528093929190818152602001838380828437600081840152601f19601f820116905080830192505050505050509192919290803590602001909291905050506117f9565b005b3480156103da57600080fd5b506103e3611a67565b604051808273ffffffffffffffffffffffffffffffffffffffff1673ffffffffffffffffffffffffffffffffffffffff16815260200191505060405180910390f35b34801561043157600080fd5b506104eb6004803603602081101561044857600080fd5b810190808035906020019064010000000081111561046557600080fd5b82018360208201111561047757600080fd5b8035906020019184600183028401116401000000008311171561049957600080fd5b91908080601f016020809104026020016040519081016040528093929190818152602001838380828437600081840152601f19601f820116905080830192505050505050509192919290505050611a6f565b6040518082815260200191505060405180910390f35b34801561050d57600080fd5b506105e76004803603604081101561052457600080fd5b81019080803573ffffffffffffffffffffffffffffffffffffffff1690602001909291908035906020019064010000000081111561056157600080fd5b82018360208201111561057357600080fd5b8035906020019184600183028401116401000000008311171561059557600080fd5b91908080601f016020809104026020016040519081016040528093929190818152602001838380828437600081840152601f19601f820116905080830192505050505050509192919290505050611ae4565b6040518082815260200191505060405180910390f35b34801561060957600080fd5b506106e36004803603604081101561062057600080fd5b81019080803573ffffffffffffffffffffffffffffffffffffffff1690602001909291908035906020019064010000000081111561065d57600080fd5b82018360208201111561066f57600080fd5b8035906020019184600183028401116401000000008311171561069157600080fd5b91908080601f016020809104026020016040519081016040528093929190818152602001838380828437600081840152601f19601f820116905080830192505050505050509192919290505050611b97565b6040518082815260200191505060405180910390f35b34801561070557600080fd5b506107bf6004803603602081101561071c57600080fd5b810190808035906020019064010000000081111561073957600080fd5b82018360208201111561074b57600080fd5b8035906020019184600183028401116401000000008311171561076d57600080fd5b91908080601f016020809104026020016040519081016040528093929190818152602001838380828437600081840152601f19601f820116905080830192505050505050509192919290505050611c4a565b6040518082815260200191505060405180910390f35b3480156107e157600080fd5b5061080e600480360360208110156107f857600080fd5b8101908080359060200190929190505050611cbf565b6040518080602001828103825283818151815260200191508051906020019080838360005b8381101561084e578082015181840152602081019050610833565b50505050905090810190601f16801561087b5780820380516001836020036101000a031916815260200191505b509250505060405180910390f35b34801561089557600080fd5b5061094f600480360360208110156108ac57600080fd5b81019080803590602001906401000000008111156108c957600080fd5b8201836020820111156108db57600080fd5b803590602001918460018302840111640100000000831117156108fd57600080fd5b91908080601f016020809104026020016040519081016040528093929190818152602001838380828437600081840152601f19601f820116905080830192505050505050509192919290505050611d74565b6040518080602001828103825283818151815260200191508051906020019080838360005b8381101561098f578082015181840152602081019050610974565b50505050905090810190601f1680156109bc5780820380516001836020036101000a031916815260200191505b509250505060405180910390f35b3480156109d657600080fd5b50610a90600480360360208110156109ed57600080fd5b8101908080359060200190640100000000811115610a0a57600080fd5b820183602082011115610a1c57600080fd5b80359060200191846001830284011164010000000083111715610a3e57600080fd5b91908080601f016020809104026020016040519081016040528093929190818152602001838380828437600081840152601f19601f820116905080830192505050505050509192919290505050611e81565b6040518082815260200191505060405180910390f35b348015610ab257600080fd5b50610b6c60048036036020811015610ac957600080fd5b8101908080359060200190640100000000811115610ae657600080fd5b820183602082011115610af857600080fd5b80359060200191846001830284011164010000000083111715610b1a57600080fd5b91908080601f016020809104026020016040519081016040528093929190818152602001838380828437600081840152601f19601f820116905080830192505050505050509192919290505050611ef6565b6040518080602001828103825283818151815260200191508051906020019080838360005b83811015610bac578082015181840152602081019050610b91565b50505050905090810190601f168015610bd95780820380516001836020036101000a031916815260200191505b509250505060405180910390f35b348015610bf357600080fd5b50610cd760048036036060811015610c0a57600080fd5b81019080803573ffffffffffffffffffffffffffffffffffffffff16906020019092919080359060200190640100000000811115610c4757600080fd5b820183602082011115610c5957600080fd5b80359060200191846001830284011164010000000083111715610c7b57600080fd5b91908080601f016020809104026020016040519081016040528093929190818152602001838380828437600081840152601f19601f82011690508083019250505050505050919291929080359060200190929190505050612003565b005b348015610ce557600080fd5b50610f82600480360360e0811015610cfc57600080fd5b81019080803590602001909291908035906020019092919080359060200190640100000000811115610d2d57600080fd5b820183602082011115610d3f57600080fd5b80359060200191846001830284011164010000000083111715610d6157600080fd5b91908080601f016020809104026020016040519081016040528093929190818152602001838380828437600081840152601f19601f82011690508083019250505050505050919291929080359060200190640100000000811115610dc457600080fd5b820183602082011115610dd657600080fd5b80359060200191846001830284011164010000000083111715610df857600080fd5b91908080601f016020809104026020016040519081016040528093929190818152602001838380828437600081840152601f19601f8201169050808301925050505050505091929192908035906020019092919080359060200190640100000000811115610e6557600080fd5b820183602082011115610e7757600080fd5b80359060200191846001830284011164010000000083111715610e9957600080fd5b91908080601f016020809104026020016040519081016040528093929190818152602001838380828437600081840152601f19601f82011690508083019250505050505050919291929080359060200190640100000000811115610efc57600080fd5b820183602082011115610f0e57600080fd5b80359060200191846001830284011164010000000083111715610f3057600080fd5b91908080601f016020809104026020016040519081016040528093929190818152602001838380828437600081840152601f19601f82011690508083019250505050505050919291929050505061222b565b005b348015610f9057600080fd5b50610fdd60048036036040811015610fa757600080fd5b81019080803573ffffffffffffffffffffffffffffffffffffffff16906020019092919080359060200190929190505050612ae7565b6040518082815260200191505060405180910390f35b348015610fff57600080fd5b506110b96004803603602081101561101657600080fd5b810190808035906020019064010000000081111561103357600080fd5b82018360208201111561104557600080fd5b8035906020019184600183028401116401000000008311171561106757600080fd5b91908080601f016020809104026020016040519081016040528093929190818152602001838380828437600081840152601f19601f820116905080830192505050505050509192919290505050612c51565b6040518080602001828103825283818151815260200191508051906020019080838360005b838110156110f95780820151818401526020810190506110de565b50505050905090810190601f1680156111265780820380516001836020036101000a031916815260200191505b509250505060405180910390f35b34801561114057600080fd5b50611149612d5e565b6040518082815260200191505060405180910390f35b34801561116b57600080fd5b5061124f6004803603606081101561118257600080fd5b81019080803573ffffffffffffffffffffffffffffffffffffffff169060200190929190803590602001906401000000008111156111bf57600080fd5b8201836020820111156111d157600080fd5b803590602001918460018302840111640100000000831117156111f357600080fd5b91908080601f016020809104026020016040519081016040528093929190818152602001838380828437600081840152601f19601f82011690508083019250505050505050919291929080359060200190929190505050612d67565b005b34801561125d57600080fd5b506113176004803603602081101561127457600080fd5b810190808035906020019064010000000081111561129157600080fd5b8201836020820111156112a357600080fd5b803590602001918460018302840111640100000000831117156112c557600080fd5b91908080601f016020809104026020016040519081016040528093929190818152602001838380828437600081840152601f19601f820116905080830192505050505050509192919290505050612f8f565b604051808215151515815260200191505060405180910390f35b34801561133d57600080fd5b506114176004803603604081101561135457600080fd5b810190808035906020019064010000000081111561137157600080fd5b82018360208201111561138357600080fd5b803590602001918460018302840111640100000000831117156113a557600080fd5b91908080601f016020809104026020016040519081016040528093929190818152602001838380828437600081840152601f19601f820116905080830192505050505050509192919290803573ffffffffffffffffffffffffffffffffffffffff169060200190929190505050613011565b005b34801561142557600080fd5b506114686004803603602081101561143c57600080fd5b81019080803573ffffffffffffffffffffffffffffffffffffffff169060200190929190505050613184565b6040518082815260200191505060405180910390f35b6001826040518082805190602001908083835b6020831015156114b65780518252602082019150602081019050602083039250611491565b6001836020036101000a038019825116818451168082178552505050505050905001915050908152602001604051809103902060009054906101000a900460ff16151561150257600080fd5b6007826040518082805190602001908083835b60208310151561153a5780518252602082019150602081019050602083039250611515565b6001836020036101000a038019825116818451168082178552505050505050905001915050908152602001604051809103902054811115151561157c57600080fd5b60003390506000601060008373ffffffffffffffffffffffffffffffffffffffff1673ffffffffffffffffffffffffffffffffffffffff168152602001908152602001600020846040518082805190602001908083835b6020831015156115f857805182526020820191506020810190506020830392506115d3565b6001836020036101000a0380198251168184511680821785525050505050509050019150509081526020016040518091039020549050828101905080601060008473ffffffffffffffffffffffffffffffffffffffff1673ffffffffffffffffffffffffffffffffffffffff168152602001908152602001600020856040518082805190602001908083835b6020831015156116a95780518252602082019150602081019050602083039250611684565b6001836020036101000a038019825116818451168082178552505050505050905001915050908152602001604051809103902081905550826007856040518082805190602001908083835b60208310151561171957805182526020820191506020810190506020830392506116f4565b6001836020036101000a03801982511681845116808217855250505050505090500191505090815260200160405180910390206000828254039250508190555050505050565b600080600a836040518082805190602001908083835b60208310151561179a5780518252602082019150602081019050602083039250611775565b6001836020036101000a038019825116818451168082178552505050505050905001915050908152602001604051809103902060009054906101000a900473ffffffffffffffffffffffffffffffffffffffff16905080915050919050565b6001826040518082805190602001908083835b602083101515611831578051825260208201915060208101905060208303925061180c565b6001836020036101000a038019825116818451168082178552505050505050905001915050908152602001604051809103902060009054906101000a900460ff16151561187d57600080fd5b80601060003373ffffffffffffffffffffffffffffffffffffffff1673ffffffffffffffffffffffffffffffffffffffff168152602001908152602001600020836040518082805190602001908083835b6020831015156118f357805182526020820191506020810190506020830392506118ce565b6001836020036101000a0380198251168184511680821785525050505050509050019150509081526020016040518091039020541015151561193457600080fd5b80601060003373ffffffffffffffffffffffffffffffffffffffff1673ffffffffffffffffffffffffffffffffffffffff168152602001908152602001600020836040518082805190602001908083835b6020831015156119aa5780518252602082019150602081019050602083039250611985565b6001836020036101000a038019825116818451168082178552505050505050905001915050908152602001604051809103902060008282540392505081905550806007836040518082805190602001908083835b602083101515611a2357805182526020820191506020810190506020830392506119fe565b6001836020036101000a0380198251168184511680821785525050505050509050019150509081526020016040518091039020600082825401925050819055505050565b600033905090565b60006009826040518082805190602001908083835b602083101515611aa95780518252602082019150602081019050602083039250611a84565b6001836020036101000a0380198251168184511680821785525050505050509050019150509081526020016040518091039020549050919050565b6000601060008473ffffffffffffffffffffffffffffffffffffffff1673ffffffffffffffffffffffffffffffffffffffff168152602001908152602001600020826040518082805190602001908083835b602083101515611b5b5780518252602082019150602081019050602083039250611b36565b6001836020036101000a038019825116818451168082178552505050505050905001915050908152602001604051809103902054905092915050565b6000600f60008473ffffffffffffffffffffffffffffffffffffffff1673ffffffffffffffffffffffffffffffffffffffff168152602001908152602001600020826040518082805190602001908083835b602083101515611c0e5780518252602082019150602081019050602083039250611be9565b6001836020036101000a038019825116818451168082178552505050505050905001915050908152602001604051809103902054905092915050565b60006006826040518082805190602001908083835b602083101515611c845780518252602082019150602081019050602083039250611c5f565b6001836020036101000a0380198251168184511680821785525050505050509050019150509081526020016040518091039020549050919050565b6060600b60008381526020019081526020016000208054600181600116156101000203166002900480601f016020809104026020016040519081016040528092919081815260200182805460018160011615610100020316600290048015611d685780601f10611d3d57610100808354040283529160200191611d68565b820191906000526020600020905b815481529060010190602001808311611d4b57829003601f168201915b50505050509050919050565b60606004826040518082805190602001908083835b602083101515611dae5780518252602082019150602081019050602083039250611d89565b6001836020036101000a03801982511681845116808217855250505050505090500191505090815260200160405180910390208054600181600116156101000203166002900480601f016020809104026020016040519081016040528092919081815260200182805460018160011615610100020316600290048015611e755780601f10611e4a57610100808354040283529160200191611e75565b820191906000526020600020905b815481529060010190602001808311611e5857829003601f168201915b50505050509050919050565b60006007826040518082805190602001908083835b602083101515611ebb5780518252602082019150602081019050602083039250611e96565b6001836020036101000a0380198251168184511680821785525050505050509050019150509081526020016040518091039020549050919050565b60606005826040518082805190602001908083835b602083101515611f305780518252602082019150602081019050602083039250611f0b565b6001836020036101000a03801982511681845116808217855250505050505090500191505090815260200160405180910390208054600181600116156101000203166002900480601f016020809104026020016040519081016040528092919081815260200182805460018160011615610100020316600290048015611ff75780601f10611fcc57610100808354040283529160200191611ff7565b820191906000526020600020905b815481529060010190602001808311611fda57829003601f168201915b50505050509050919050565b80600f60008573ffffffffffffffffffffffffffffffffffffffff1673ffffffffffffffffffffffffffffffffffffffff168152602001908152602001600020836040518082805190602001908083835b6020831015156120795780518252602082019150602081019050602083039250612054565b6001836020036101000a038019825116818451168082178552505050505050905001915050908152602001604051809103902054101515156120ba57600080fd5b80600f60008573ffffffffffffffffffffffffffffffffffffffff1673ffffffffffffffffffffffffffffffffffffffff168152602001908152602001600020836040518082805190602001908083835b602083101515612130578051825260208201915060208101905060208303925061210b565b6001836020036101000a03801982511681845116808217855250505050505090500191505090815260200160405180910390206000828254039250508190555080601060003373ffffffffffffffffffffffffffffffffffffffff1673ffffffffffffffffffffffffffffffffffffffff168152602001908152602001600020836040518082805190602001908083835b6020831015156121e657805182526020820191506020810190506020830392506121c1565b6001836020036101000a038019825116818451168082178552505050505050905001915050908152602001604051809103902060008282540192505081905550505050565b6001826040518082805190602001908083835b602083101515612263578051825260208201915060208101905060208303925061223e565b6001836020036101000a038019825116818451168082178552505050505050905001915050908152602001604051809103902060009054906101000a900460ff161515156122b057600080fd5b6002856040518082805190602001908083835b6020831015156122e857805182526020820191506020810190506020830392506122c3565b6001836020036101000a038019825116818451168082178552505050505050905001915050908152602001604051809103902060009054906101000a900460ff1615151561233557600080fd5b6003846040518082805190602001908083835b60208310151561236d5780518252602082019150602081019050602083039250612348565b6001836020036101000a038019825116818451168082178552505050505050905001915050908152602001604051809103902060009054906101000a900460ff161515156123ba57600080fd5b600d600084815260200190815260200160002060009054906101000a900460ff161515156123e757600080fd5b600e816040518082805190602001908083835b60208310151561241f57805182526020820191506020810190506020830392506123fa565b6001836020036101000a038019825116818451168082178552505050505050905001915050908152602001604051809103902060009054906101000a900460ff1615151561246c57600080fd5b6001600080828254019250508190555081600b60008054815260200190815260200160002090805190602001906124a49291906131a5565b50846005836040518082805190602001908083835b6020831015156124de57805182526020820191506020810190506020830392506124b9565b6001836020036101000a038019825116818451168082178552505050505050905001915050908152602001604051809103902090805190602001906125249291906131a5565b50836004836040518082805190602001908083835b60208310151561255e5780518252602082019150602081019050602083039250612539565b6001836020036101000a038019825116818451168082178552505050505050905001915050908152602001604051809103902090805190602001906125a49291906131a5565b50866006836040518082805190602001908083835b6020831015156125de57805182526020820191506020810190506020830392506125b9565b6001836020036101000a038019825116818451168082178552505050505050905001915050908152602001604051809103902081905550856007836040518082805190602001908083835b60208310151561264e5780518252602082019150602081019050602083039250612629565b6001836020036101000a03801982511681845116808217855250505050505090500191505090815260200160405180910390208190555080600c836040518082805190602001908083835b6020831015156126be5780518252602082019150602081019050602083039250612699565b6001836020036101000a038019825116818451168082178552505050505050905001915050908152602001604051809103902090805190602001906127049291906131a5565b5060016008836040518082805190602001908083835b60208310151561273f578051825260208201915060208101905060208303925061271a565b6001836020036101000a038019825116818451168082178552505050505050905001915050908152602001604051809103902060006101000a81548160ff02191690831515021790555033600a836040518082805190602001908083835b6020831015156127c2578051825260208201915060208101905060208303925061279d565b6001836020036101000a038019825116818451168082178552505050505050905001915050908152602001604051809103902060006101000a81548173ffffffffffffffffffffffffffffffffffffffff021916908373ffffffffffffffffffffffffffffffffffffffff160217905550826009836040518082805190602001908083835b60208310151561286c5780518252602082019150602081019050602083039250612847565b6001836020036101000a0380198251168184511680821785525050505050509050019150509081526020016040518091039020819055506001600d600085815260200190815260200160002060006101000a81548160ff0219169083151502179055506001600e826040518082805190602001908083835b60208310151561290957805182526020820191506020810190506020830392506128e4565b6001836020036101000a038019825116818451168082178552505050505050905001915050908152602001604051809103902060006101000a81548160ff021916908315150217905550600180836040518082805190602001908083835b60208310151561298c5780518252602082019150602081019050602083039250612967565b6001836020036101000a038019825116818451168082178552505050505050905001915050908152602001604051809103902060006101000a81548160ff02191690831515021790555060016002866040518082805190602001908083835b602083101515612a1057805182526020820191506020810190506020830392506129eb565b6001836020036101000a038019825116818451168082178552505050505050905001915050908152602001604051809103902060006101000a81548160ff02191690831515021790555060016003856040518082805190602001908083835b602083101515612a945780518252602082019150602081019050602083039250612a6f565b6001836020036101000a038019825116818451168082178552505050505050905001915050908152602001604051809103902060006101000a81548160ff02191690831515021790555050505050505050565b60006060600b60008481526020019081526020016000208054600181600116156101000203166002900480601f016020809104026020016040519081016040528092919081815260200182805460018160011615610100020316600290048015612b925780601f10612b6757610100808354040283529160200191612b92565b820191906000526020600020905b815481529060010190602001808311612b7557829003601f168201915b505050505090506000601060008673ffffffffffffffffffffffffffffffffffffffff1673ffffffffffffffffffffffffffffffffffffffff168152602001908152602001600020826040518082805190602001908083835b602083101515612c105780518252602082019150602081019050602083039250612beb565b6001836020036101000a0380198251168184511680821785525050505050509050019150509081526020016040518091039020549050809250505092915050565b6060600c826040518082805190602001908083835b602083101515612c8b5780518252602082019150602081019050602083039250612c66565b6001836020036101000a03801982511681845116808217855250505050505090500191505090815260200160405180910390208054600181600116156101000203166002900480601f016020809104026020016040519081016040528092919081815260200182805460018160011615610100020316600290048015612d525780601f10612d2757610100808354040283529160200191612d52565b820191906000526020600020905b815481529060010190602001808311612d3557829003601f168201915b50505050509050919050565b60008054905090565b80601060008573ffffffffffffffffffffffffffffffffffffffff1673ffffffffffffffffffffffffffffffffffffffff168152602001908152602001600020836040518082805190602001908083835b602083101515612ddd5780518252602082019150602081019050602083039250612db8565b6001836020036101000a03801982511681845116808217855250505050505090500191505090815260200160405180910390205410151515612e1e57600080fd5b80600f60008573ffffffffffffffffffffffffffffffffffffffff1673ffffffffffffffffffffffffffffffffffffffff168152602001908152602001600020836040518082805190602001908083835b602083101515612e945780518252602082019150602081019050602083039250612e6f565b6001836020036101000a03801982511681845116808217855250505050505090500191505090815260200160405180910390206000828254019250508190555080601060008573ffffffffffffffffffffffffffffffffffffffff1673ffffffffffffffffffffffffffffffffffffffff168152602001908152602001600020836040518082805190602001908083835b602083101515612f4a5780518252602082019150602081019050602083039250612f25565b6001836020036101000a038019825116818451168082178552505050505050905001915050908152602001604051809103902060008282540392505081905550505050565b60006008826040518082805190602001908083835b602083101515612fc95780518252602082019150602081019050602083039250612fa4565b6001836020036101000a038019825116818451168082178552505050505050905001915050908152602001604051809103902060009054906101000a900460ff169050919050565b600a826040518082805190602001908083835b6020831015156130495780518252602082019150602081019050602083039250613024565b6001836020036101000a038019825116818451168082178552505050505050905001915050908152602001604051809103902060009054906101000a900473ffffffffffffffffffffffffffffffffffffffff1673ffffffffffffffffffffffffffffffffffffffff163373ffffffffffffffffffffffffffffffffffffffff161415156130d657600080fd5b80600a836040518082805190602001908083835b60208310151561310f57805182526020820191506020810190506020830392506130ea565b6001836020036101000a038019825116818451168082178552505050505050905001915050908152602001604051809103902060006101000a81548173ffffffffffffffffffffffffffffffffffffffff021916908373ffffffffffffffffffffffffffffffffffffffff1602179055505050565b60008173ffffffffffffffffffffffffffffffffffffffff16319050919050565b828054600181600116156101000203166002900490600052602060002090601f016020900481019282601f106131e657805160ff1916838001178555613214565b82800160010185558215613214579182015b828111156132135782518255916020019190600101906131f8565b5b5090506132219190613225565b5090565b61324791905b8082111561324357600081600090555060010161322b565b5090565b9056fea165627a7a723058200472fbee2a73703c2d11c851f0165d85c5bf510f0c1b394b2f061c34c4c9b7510029",
  "source": "pragma solidity >=0.4.21;\n\ncontract Token {\n    uint256 totalSupply;\n    mapping(string => bool) hashExist;\n    mapping(string => bool) tokenExist;\n    mapping(string => bool) symbolExist;\n    mapping(string => string) tokenSymbol;\n    mapping(string => string) tokenName;\n    mapping(string => uint256) tokenPrice;\n    mapping(string => uint256) tokenNumbers;\n    mapping(string => bool) tokenStatus;\n    mapping(string => uint256) tokenDeed;\n    mapping(string => address) owners;\n    mapping(uint256 => string) tokenID;\n    mapping (string => string) deedHash;\n    mapping (uint256=> bool) deedExist;\n    mapping(string=>bool) deedHashExist;\n    mapping (address => mapping(string =>uint256)) onSale;\n    mapping(address => mapping(string => uint256)) accountInfo;\n    function getAccountTokens(address _address , string memory _hash) public view returns (uint256){\n        return accountInfo[_address][_hash];\n    }\n    function putOnSale(address _address , string memory _hash, uint256 _ammount)   public{\n          require(accountInfo[_address][_hash]>=_ammount);\n           onSale[_address][_hash]+=_ammount;\n           accountInfo[_address][_hash]-=_ammount;\n    }\n    function buyOnBid (address _address , string memory _hash , uint256 amount) public {\n            require(onSale[_address][_hash]>=amount);\n            onSale[_address][_hash]-=amount;\n            accountInfo[msg.sender][_hash]+=amount;\n    }\n    function getSellStatus(address _address , string memory _hash) public view returns (uint256){\n        return onSale[_address][_hash];\n    } \n    function getDeedHash(string memory _hash) public view returns(string memory){\n        return deedHash[_hash];\n    }\n    \n    function getAddress() public view returns (address) {\n        return msg.sender;\n    }\n\n    function getTotalSupply() public view returns (uint256) {\n        return totalSupply;\n    }\n\n    function getNumberOfTokens(string memory _hash)\n        public\n        view\n        returns (uint256)\n    {\n        return tokenNumbers[_hash];\n    }\n\n    function getTokenPrice(string memory _hash) public view returns (uint256) {\n        return tokenPrice[_hash];\n    }\n\n    function getTokenName(string memory _hash)\n        public\n        view\n        returns (string memory)\n    {\n        return tokenName[_hash];\n    }\n\n    function getTokenSymbol(string memory _hash)\n        public\n        view\n        returns (string memory)\n    {\n        return tokenSymbol[_hash];\n    }\n\n    function getTokenOwner(string memory _hash) public view returns (address) {\n        address ans= owners[_hash];\n        return ans;\n    }\n\n    function getTokenStatus(string memory _hash) public view returns (bool) {\n        return tokenStatus[_hash];\n    }\n\n    function getTokenDeed(string memory _hash) public view returns (uint256) {\n        return tokenDeed[_hash];\n    }\n\n    function getBalance(address _address) public view returns (uint256) {\n        return _address.balance;\n    }\n\n    function mint(\n        uint256 _tokenPrice,\n        uint256 _totalToken,\n        string memory _name,\n        string memory _symbol,\n        uint256 deed,\n        string memory _hash,\n        string memory _deedHash\n    ) public {\n        require(!hashExist[_hash]);\n        require(!tokenExist[_name]);\n        require(!symbolExist[_symbol]);\n        require(!deedExist[deed]);\n        require(!deedHashExist[_deedHash]);\n        totalSupply += 1;\n        tokenID[totalSupply] = _hash;\n        tokenName[_hash] = _name;\n        tokenSymbol[_hash] = _symbol;\n        tokenPrice[_hash] = _tokenPrice;\n        tokenNumbers[_hash] = _totalToken;\n        deedHash[_hash]=_deedHash;\n        tokenStatus[_hash]=true;\n        owners[_hash] = msg.sender;\n        tokenDeed[_hash] = deed;\n        deedExist[deed]=true;\n        deedHashExist[_deedHash]=true;\n        hashExist[_hash] = true;\n        tokenExist[_name] = true;\n        symbolExist[_symbol] = true;\n    }\n\n    function changeOwner(string memory _hash, address _to ) public {\n        require(msg.sender == owners[_hash]);\n        owners[_hash] = _to;\n    }\n\n    function buyToken(string memory _hash, uint256 _number) public {\n        require(hashExist[_hash]);\n        require(_number <= tokenNumbers[_hash]);\n        address _address = msg.sender;\n        uint256 tokenNow = accountInfo[_address][_hash];\n        tokenNow += _number;\n        accountInfo[_address][_hash] = tokenNow;\n        tokenNumbers[_hash] -= _number;\n    }\n\n    function saleTokens(string memory _hash, uint256 ammount) public {\n        require(hashExist[_hash]);\n        require(accountInfo[msg.sender][_hash] >= ammount);\n        accountInfo[msg.sender][_hash] -= ammount;\n        tokenNumbers[_hash] += ammount;\n    }\n\n    function showAccountTokens(address _address, uint256 _id)\n        public\n        view\n        returns (uint256)\n    {\n        string memory _hash = tokenID[_id];\n        uint256 buyerTokenNumber = accountInfo[_address][_hash];\n        return buyerTokenNumber;\n    }\n    function getTokenHashID(uint256 _id)public view returns(string memory){\n        return tokenID[_id];\n    }\n}\n",
  "sourcePath": "/home/ishmam-abid/Crypto-token-master/front_end/src/contracts/Token.sol",
  "compiler": {
    "name": "solc",
    "version": "0.5.0+commit.1d4f565a.Emscripten.clang"
  },
  "schemaVersion": "3.0.2",
  "updatedAt": "2021-04-28T15:55:00.903Z",
  "devdoc": {
    "methods": {}
  },
  "userdoc": {
    "methods": {}
  }
}